:020000040800F2
:100000000000022091030008750300087703000830
:10001000790300087B0300087D030008000000004E
:100020000000000000000000000000007F03000846
:100030008103000800000000830300088503000816
:10004000E1030008E1030008E1030008E103000800
:10005000E1030008E1030008E1030008E1030008F0
:10006000E1030008E1030008E1030008E1030008E0
:10007000E1030008E1030008E1030008E1030008D0
:10008000E1030008E1030008E1030008E1030008C0
:10009000E1030008E1030008E1030008E1030008B0
:1000A000E1030008E1030008E1030008E1030008A0
:1000B000E1030008E1030008E1030008E103000890
:1000C000E1030008E1030008E1030008E103000880
:1000D000E1030008E1030008E1030008E103000870
:1000E000E1030008E1030008E1030008E103000860
:1000F000E1030008E1030008E1030008E103000850
:10010000E1030008E1030008E1030008E10300083F
:10011000E1030008E1030008E1030008E10300082F
:10012000E1030008E1030008E1030008E10300081F
:10013000E1030008E1030008E1030008E10300080F
:10014000E1030008E1030008E1030008E1030008FF
:10015000E1030008E1030008E1030008E1030008EF
:10016000E1030008E1030008E1030008E1030008DF
:10017000E1030008E1030008E103000800000000BB
:08018000E1030008E10300089F
:1001880053B94AB9002908BF00281CBF4FF0FF31F6
:100198004FF0FF3000F00CB8ADF1080C6DE904CE5B
:1001A80000F076FDDDF804E0DDE9022304B07047D5
:1001B800704700BF0348044B834202D0034B03B18E
:1001C80018477047100000201000002000000000B1
:1001D8000548064B1B1AD90F01EBA301491002D0A1
:1001E800034B03B11847704710000020100000208F
:1001F8000000000010B5064C237843B9FFF7DAFF7A
:10020800044B13B10448AFF300800123237010BDE1
:1002180010000020000000004C11000808B5054B34
:100228001BB105490548AFF30080BDE80840FFF75A
:10023800CFBF00BF00000000140000204C110008D0
:1002480082B0002100910B4B1A6B42F080021A63B6
:100258001A6B02F080020092009A01911A6B42F028
:1002680001021A631B6B03F001030193019B02B0A7
:10027800704700BF0038024072B6FEE710B594B070
:1002880008AC30220021204600F07EFE00230393B4
:10029800049305930693079301931F4A116C41F049
:1002A80080511164126C02F080520192019A0293FB
:1002B8001A4A116841F480411160126802F48042C0
:1002C8000292029A0222089201210B9110210C91AC
:1002D8000E920F9308231093A823119312920423CC
:1002E8001393204600F036F990B90F2303930223A5
:1002F8000493002305934FF4A05306934FF48053BF
:100308000793052103A800F075FB18B914B010BDB8
:10031800FFF7B2FFFFF7B0FF00380240007000405F
:1003280008B500F017FC00F07FF8FFF7A7FFFFF70C
:1003380087FFFEE782B0002100910B4B5A6C42F414
:1003480080425A645A6C02F480420092009A0191E9
:100358001A6C42F080521A641B6C03F080530193AC
:10036800019B02B0704700BF00380240FEE7FEE77D
:10037800FEE7FEE7FEE770477047704708B500F0F4
:100388006DF808BD70470000DFF834D0FFF7FAFFBA
:100398000C480D490D4A002302E0D458C4500433D8
:1003A800C4188C42F9D30A4A0A4C002301E01360AE
:1003B8000432A242FBD300F035FEFFF7B1FF7047CD
:1003C8000000022000000020100000208811000812
:1003D80010000020C8010020FEE7000010B5044608
:1003E8000E4B1A784FF47A73B3FBF2F30C4A106889
:1003F800B0FBF3F000F09AF868B90F2C01D901208E
:100408000AE0002221464FF0FF3000F07FF8054B4C
:100418001C60002000E0012010BD00BF0400002087
:10042800000000200800002008B50B4B1A6842F4B1
:1004380000721A601A6842F480621A601A6842F4FC
:1004480080721A60032000F04FF80F20FFF7C6FFF4
:10045800FFF770FF002008BD003C0240034A116806
:10046800034B1B780B441360704700BF2C0000201F
:1004780004000020014B1868704700BF2C000020C2
:10048800002808DB0901C9B200F1604000F56140AD
:1004980080F80013704700F00F000901C9B2014B42
:1004A8001954704714ED00E000B500F00700C0F1E2
:1004B800070CBCF1040F28BF4FF0040C031D062BDA
:1004C8000FD9C31E4FF0FF3E0EFA0CF021EA0001CF
:1004D80099400EFA03FE22EA0E0241EA02005DF894
:1004E80004FB0023EEE70000074AD36823F4E06327
:1004F8001B041B0C000200F4E060034343F0BF63DD
:1005080043F40033D360704700ED00E010B50446B3
:10051800054BD868C0F30220FFF7C6FF0146204606
:10052800FFF7AEFF10BD00BF00ED00E00138B0F1ED
:10053800807F0BD24FF0E0235861054AF02182F802
:1005480023100020986107221A6170470120704724
:1005580000ED00E0002800F0E08170B582B00446AC
:10056800036813F0010F3BD09F4B9B6803F00C030B
:10057800042B2CD09C4B9B6803F00C03082B21D038
:100588006368B3F5803F4FD0B3F5A02F52D0964B98
:100598001A6822F480321A601A6822F480221A60DB
:1005A8006368002B50D0FFF765FF05468E4B1B682C
:1005B80013F4003F14D1FFF75DFF401B6428F5D901
:1005C8000320B1E1884B5B6813F4800FD8D0864BC9
:1005D8001B6813F4003F03D06368002B00F09F8171
:1005E800236813F0020F54D07F4B9B6813F00C0F55
:1005F8003ED07D4B9B6803F00C03082B33D0E36897
:10060800002B68D0794B01221A60FFF733FF0546AB
:10061800754B1B6813F0020F54D1FFF72BFF401BDB
:100628000228F5D903207FE16F4A136843F4803329
:100638001360B5E76C4B1A6842F480221A601A6896
:1006480042F480321A60ABE7FFF714FF0546664BA9
:100658001B6813F4003FC3D0FFF70CFF401B64284E
:10066800F5D9032060E1604B5B6813F4800FC6D1B5
:100678005D4B1B6813F0020F03D0E368012B40F0B9
:100688005081594A136823F0F803216943EAC103EA
:100698001360236813F0080F42D063696BB3534BA0
:1006A8000122C3F8802EFFF7E5FE05464E4B5B6F2F
:1006B80013F0020F34D1FFF7DDFE401B0228F5D9F5
:1006C800032031E1484A136823F0F803216943EA1B
:1006D800C1031360DDE7454B00221A60FFF7CAFE2D
:1006E8000546414B1B6813F0020FD2D0FFF7C2FE3C
:1006F800401B0228F5D9032016E13C4B0022C3F821
:10070800802EFFF7B7FE0546374B5B6F13F0020FDD
:1007180006D0FFF7AFFE401B0228F5D9032003E1FE
:10072800236813F0040F77D02F4B1B6C13F0805FF6
:1007380033D1002301932C4B1A6C42F080521A6477
:100748001B6C03F080530193019B0125284B1B6808
:1007580013F4807F23D0A368012B34D0052B38D025
:10076800214B1A6F22F001021A671A6F22F0040255
:100778001A67A368002B3DD0FFF77CFE06461A4B8C
:100788001B6F13F0020F46D1FFF774FE801B41F276
:1007980088339842F3D90320C6E00025D6E7144AE7
:1007A800136843F480731360FFF764FE0646104B2A
:1007B8001B6813F4807FCED1FFF75CFE801B0228F4
:1007C800F5D90320B0E0084A136F43F0010313671B
:1007D800CFE7054B1A6F42F004021A671A6F42F00E
:1007E80001021A67C5E700BF00380240000047420F
:1007F80000700040FFF73EFE0646524B1B6F13F099
:10080800020F08D0FFF736FE801B41F2883398426A
:10081800F3D9032088E0EDB9A369002B00F08380A9
:10082800484A926802F00C02082A51D0022B17D0CD
:10083800454B00221A66FFF71DFE0446414B1B6814
:1008480013F0007F42D0FFF715FE001B0228F5D9F0
:10085800032069E03B4A136C23F080531364DBE701
:10086800394B00221A66FFF705FE0546354B1B6813
:1008780013F0007F06D0FFF7FDFD401B0228F5D9D5
:10088800032051E0E369226A1343626A43EA821350
:10089800A26A5208013A43EA0243E26A43EA02635F
:1008A800284A5360284B01221A66FFF7E3FD0446E5
:1008B800244B1B6813F0007F06D1FFF7DBFD001BFC
:1008C8000228F5D903202FE000202DE000202BE09E
:1008D800012B2BD01B4B5B6803F48001E26991422A
:1008E80026D103F03F02216A8A4223D1616A47F682
:1008F800C0721A40B2EB811F1ED103F44031A26AC4
:100908005208013AB1EB024F18D103F07063E26A62
:10091800B3EB026F14D1002006E0012070470120DC
:1009280002E0012000E0002002B070BD0120FBE7DA
:100938000120F9E70120F7E70120F5E70120F3E7B7
:100948000120F1E7003802400000474208B5264B75
:100958009B6803F00C03042B41D0082B41D1224B98
:100968005A6802F03F025B6813F4800F12D01E4BE6
:100978005968C1F388111D480023A1FB0001FFF746
:10098800FFFB194B5B68C3F3014301335B00B0FB0A
:10099800F3F008BD144B5868C0F388104FEA401CA8
:1009A800BCEB000C6EEB0E0E4FEA8E1343EA9C6311
:1009B8004FEA8C11B1EB0C0163EB0E03DB0043EA49
:1009C8005173C90011EB000C43F100039902002395
:1009D8004FEA8C2041EA9C51FFF7D2FBD1E703484C
:1009E800D7E70348D5E700BF0038024040787D01CB
:1009F8000024F400002800F09B8070B50D460446E2
:100A08004F4B1B6803F007038B4208D2CBB24C4A0A
:100A18001370136803F007038B4240F08B80236840
:100A280013F0020F17D013F0040F04D0454A93684F
:100A380043F4E0539360236813F0080F04D0414A4D
:100A4800936843F4604393603E4A936823F0F0034D
:100A5800A1680B439360236813F0010F32D06368D9
:100A6800012B21D09A1E012A25D9364A126812F084
:100A7800020F61D033498A6822F0030213438B6066
:100A8800FFF7F8FC06462F4B9B6803F00C036268DF
:100A9800B3EB820F16D0FFF7EDFC801B41F28833D1
:100AA8009842F0D9032042E0264A126812F4003F27
:100AB800E0D101203BE0234A126812F0007FD9D12F
:100AC800012034E01E4B1B6803F00703AB4207D933
:100AD800EAB21B4B1A701B6803F00703AB422DD117
:100AE800236813F0040F06D0164A936823F4E053E2
:100AF800E1680B439360236813F0080F07D0114A8D
:100B0800936823F46043216943EAC1039360FFF7C4
:100B18001DFF0C4B9B68C3F303130B4AD35CD840EF
:100B28000A4B18600A4B1868FFF758FC002070BD84
:100B3800012070470120FAE70120F8E70120F6E7D5
:100B4800003C024000380240641100080000002008
:100B58000800002038B5FFF78DFC0446464A1368A4
:100B680043F001031360444B1B6813F0020F06D1D6
:100B7800FFF780FC001B0228F5D9032038BD3E4D45
:100B88002B6843F080032B60FFF774FC04460023B6
:100B9800AB60394B9B6813F00C0F08D0FFF76AFC69
:100BA800001B41F288339842F3D90320E6E7FFF7A8
:100BB80061FC0446304A136823F4502313602E4B1B
:100BC8001B6813F4003F06D0FFF754FC001B642891
:100BD800F5D90320D2E7FFF74DFC0446264A1368EF
:100BE80023F080731360244B1B6813F0007F06D03A
:100BF800FFF740FC001B0228F5D90320BEE7FFF7EA
:100C080039FC04461C4A136823F0806313601A4BAE
:100C18001B6813F0006F06D0FFF72CFC001B02289E
:100C2800F5D90320AAE7144B144A5A60144AC3F8AA
:100C38008420DA6822F4F852DA60DA6822F4005282
:100C4800DA60DA6842F41F02DA60DA6842F4001205
:100C5800DA605A6F22F001025A675A6F42F08072C6
:100C68005A67084B084A1A60084B1868FFF7B6FB22
:100C7800002883D0012081E70038024010300004AA
:100C880000300020000000200024F40008000020AC
:100C98002DE9F047089D0F4604468C46002B48D1A5
:100CA8008A42164661D9B2FA82F34BB1C3F12002E7
:100CB80001FA03FC20FA02F29E4042EA0C0C9C4026
:100CC8004FEA164EB7B2BCFBFEF1220C0EFB11CC5C
:100CD80042EA0C4201FB07F0904209D9B21801F12F
:100CE800FF3C80F0EE80904240F2EB8002393244C3
:100CF800121AA4B2B2FBFEF00EFB102244EA024420
:100D080000FB07F7A74209D9341900F1FF3280F038
:100D1800DA80A74240F2D7803444023840EA0140E2
:100D2800E41B00211DB1DC400023C5E90043BDE8F8
:100D3800F0878B4206D90DB1C5E9000100210846AC
:100D4800BDE8F087B3FA83F1002948D1BB4202D34A
:100D5800824200F20781841A67EB0302012094465D
:100D6800002DE4D0C5E9004CE1E7002A00F09280AC
:100D7800B2FA82F3002B40F0A8808A1A4FEA164E86
:100D88001FFA86FC0121200CB2FBFEF70EFB17228E
:100D980040EA02420CFB07F0904207D9B21807F16B
:100DA800FF3802D2904200F2E2804746121AA4B2FB
:100DB800B2FBFEF00EFB102244EA02440CFB00FCDE
:100DC800A44507D9341900F1FF3202D2A44500F234
:100DD800CB801046A4EB0C0440EA0740A2E7C1F11F
:100DE80020068B4022FA06FC4CEA030C07FA01F4B1
:100DF80020FA06F3F7404FEA1C49234300FA01F8AA
:100E08001FFA8CFEB7FBF9F01C0C09FB107744EABB
:100E1800074400FB0EF7A74202FA01F20AD91CEBBD
:100E2800040400F1FF3A80F09B80A74240F29880CA
:100E380002386444E41B9FB2B4FBF9F309FB134482
:100E480047EA044403FB0EFEA64509D91CEB04043B
:100E580003F1FF3780F08280A6457FD9023B6444C6
:100E680043EA0040A4EB0E04A0FB02E7BC42734631
:100E7800B94663D360D05DB1B8EB030264EB0904F3
:100E880004FA06F622FA01F31E43CC40C5E90064D1
:100E980000214CE76208480842EAC1710B0C43EA9A
:100EA80000438AB242EA0342B3FBF6F1E407B446D0
:100EB8003746B6461F23B0FBF6F0D21B41EA004185
:100EC80061E7614614E7104628E7C3F1200120FADC
:100ED80001F29E4027FA01F19F403A434FEA164E2D
:100EE8001FFA86FCB1FBFEF70EFB1710110C41EA46
:100EF800004107FB0CF8884504FA03F43AD9711845
:100F080007F1FF3001D288451FD8A1EB0801B1FBDA
:100F1800FEF808FB0CF70EFB181192B242EA0142E8
:100F2800BA422FD2B21808F1FF31C6D2BA42C4D29F
:100F3800A8F102013244C0E7F0459CD2BEEB02039F
:100F480067EB0C070138B94695E7A6EB080841445A
:100F5800B81EB1FBFEF808FB0CF7DCE73B467FE761
:100F6800504667E70846FBE63444023832E7023F5A
:100F780032441BE7A1EB08013846B1FBFEF808FB39
:100F88000CF7C8E7414698E7830730B546D0841880
:100F9800844604E003F8011B9D0704D09C46A44541
:100FA8006346F7D130BD013A0244A2EB0C02032A92
:100FB80029D9CCB204EB04240F2A04EB04442FD91A
:100FC800A2F1100C2CF00F0C03F11005AC44C3E98E
:100FD8000044C3E9024410336345F8D112F00C0F02
:100FE80002F00F0E18D02EF0030C9C44AEF104054D
:100FF8001A4642F8044B6245FBD125F0030404333A
:101008000EF003022344002ACCD0C9B21A4403F8D4
:10101800011B9342FBD130BD7246F4E70346C6E795
:101028009646E0E770B50F4B0F4DAB42A3EB0506B4
:1010380007D0B610002455F8043B01349847A6425F
:10104800F9D800F07FF8094D094B5E1BAB424FEA17
:10105800A60606D0002455F8043B01349847A6425A
:10106800F9D870BD7C1100087C1100087C110008BB
:1010780084110008704700BF704700BF024B13B1CE
:10108800024800F005B8704700000000A5100008ED
:10109800002301461A46184600F014B838B5074D23
:1010A800074C2C1BA41005D0013C55F8043D98476B
:1010B800002CF9D1BDE8384000F04AB88811000882
:1010C800841100082DE9F8431B4D06462868984608
:1010D8000F469146FFF7CEFF184B1C681CB32868D3
:1010E80065681F2D22DC4EB96B1C0235636044F81D
:1010F8002570FFF7C1FF0020BDE8F88304EB8501E8
:101108000123C1F88890D4F88821AB401A43022EF5
:10111800C4F88821C1F80881E6D1D4F88C211A4393
:10112800C4F88C21E0E7064C1C60D8E7FFF7A4FF61
:101138004FF0FF30E0E700BF0C0000203400002033
:1011480038000020F8B500BFF8BC08BC9E467047C0
:0C115800F8B500BFF8BC08BC9E4670470C
:101164000000000000000000010203040607080953
:0811740024FBFF7F01000000D5
:08117C0085100008250200089F
:04118400FD01000861
:101188000024F400010000001000000030000020DE
:04000005080003915B
:00000001FF
