:020000040800F2
:1000000000000220F9050008C1050008C30500082A
:10001000C5050008C7050008C90500080000000064
:10002000000000000000000000000000A115000812
:10003000CB0500080000000041160008CD050008AF
:100040004906000849060008490600084906000854
:100050004906000849060008490600084906000844
:100060004906000849060008490600084906000834
:100070004906000849060008490600084906000824
:100080004906000849060008490600084906000814
:100090004906000849060008490600084906000804
:1000A00049060008490600084906000849060008F4
:1000B00049060008490600084906000849060008E4
:1000C00049060008490600084906000849060008D4
:1000D00049060008490600084906000849060008C4
:1000E00049060008490600084906000849060008B4
:1000F00049060008490600084906000849060008A4
:100100004906000849060008490600084906000893
:100110004906000849060008490600084906000883
:100120004906000849060008490600084906000873
:100130004906000849060008490600084906000863
:100140004906000849060008490600084906000853
:100150004906000849060008490600084906000843
:100160004906000849060008490600084906000833
:10017000490600084906000849060008000000007A
:080180004906000849060008C9
:1001900053B94AB9002908BF00281CBF4FF0FF31EE
:1001A0004FF0FF3000F00CB8ADF1080C6DE904CE53
:1001B00002F058F8DDF804E0DDE9022304B07047EE
:1001C000704700BF0348044B834202D0034B03B186
:1001D00018477047140000201400002000000000A1
:1001E0000548064B1B1AD90F01EBA301491002D099
:1001F000034B03B11847704714000020140000207F
:100200000000000010B5064C237843B9FFF7DAFF71
:10021000044B13B10448AFF300800123237010BDD9
:1002200014000020000000001827000808B5054B46
:100230001BB105490548AFF30080BDE80840FFF752
:10024000CFBF00BF000000001800002018270008E2
:1002500008B50D480D4B0360032343600023836002
:10026000C3604FF4102202614FF400124261037622
:1002700043768376C3760377437700F039FA00B983
:1002800008BD00F00FF9FBE75C00002000640040AF
:1002900008B50D480D4B03600323436000238360C2
:1002A000C3604FF4102202614FF4001242610376E2
:1002B00043768376C3760377437700F019FA00B963
:1002C00008BD00F0EFF8FBE73400002000680040B4
:1002D00000B58BB000230593069307930893099309
:1002E0000368374A934205D0364A93422FD00BB069
:1002F0005DF804FB344A136801331360012B19D0F5
:1003000000230193314B1A6B42F001021A631B6BFD
:1003100003F001030193019B4FF4C05305930223A3
:100320000693032308930923099305A9284800F09D
:10033000CBFBDCE700230093244B1A6C42F00072E5
:100340001A641B6C03F000730093009BD8E7002332
:1003500002931E4B1A6C42F080621A641B6C03F00D
:1003600080630293029B184A136801331360012BC8
:1003700019D000230493154B1A6B42F002021A6342
:100380001B6B03F002030493049B4FF4405305934B
:1003900002230693032308930923099305A90D4813
:1003A00000F092FBA3E700230393084B1A6C42F082
:1003B00000721A641B6C03F000730393039BD8E76D
:1003C0000064004000680040300000200038024017
:1003D000000002400004024008B5002001F0ECFCDF
:1003E00008BD0000034B0360034B0B6080231360C8
:1003F000704700BF840200208400002010B58EB03A
:10040000124C0DF11C0CA646BEE80F00ACE80F0024
:100410009EE807008CE80700002107A801F00DF80E
:100420000B4B1860EE4604F11C0CBCE80F00AEE864
:100430000F009CE807008EE807000021684600F0E6
:10044000FCFF044B18600EB010BD00BF3027000841
:10045000DC020020D802002084B000220192104B60
:10046000196B41F080011963196B01F08001019152
:1004700001990292196B41F002011963196B01F0A5
:1004800002010291029903921A6B42F001021A636F
:100490001B6B03F001030393039B04B0704700BF81
:1004A0000038024072B6FEE710B594B008AC3022B6
:1004B0000021204602F052F8002303930493059391
:1004C000069307930193204A116C41F08051116407
:1004D000126C02F080520192019A02931B4B1A682F
:1004E00042F480421A601B6803F480430293029B2B
:1004F000012308934FF48033099302220E924FF4A4
:1005000080030F9304231093A82111911292139347
:10051000204600F0CFFB90B90F23039302230493EE
:10052000002305934FF4A05306934FF48053079391
:10053000052103A800F028FE18B914B010BDFFF77C
:10054000B1FFFFF7AFFF00BF00380240007000406E
:1005500008B500F0C9FE00F09FF8FFF7A5FFFFF710
:100560007BFFFFF775FEFFF793FE01F03DFE01F004
:1005700059FEFFF743FF00F05BFFFEE700B583B0D5
:10058000002200920D4B596C41F480415964596C22
:1005900001F48041009100990192196C41F0805161
:1005A00019641B6C03F080530193019B0F216FF0C2
:1005B000010000F065FA03B05DF804FB003802406A
:1005C000FEE7FEE7FEE7FEE7FEE7704708B500F04E
:1005D0007DF801F0F7FD012800D108BD01F062F8B7
:1005E000FBE70000034AD2F8883043F47003C2F8F6
:1005F0008830704700ED00E0DFF834D0FFF7F2FFFD
:100600000C480D490D4A002302E0D458C45004336D
:10061000C4188C42F9D30A4A0A4C002301E0136043
:100620000432A242FBD301F0E7FFFFF791FF7047CE
:10063000000002200000002014000020B027000865
:1006400014000020D0410020FEE7000010B5044651
:100650000E4B1A784FF47A73B3FBF2F30C4A10681E
:10066000B0FBF3F000F01CFA68B90F2C01D901209F
:100670000AE0002221464FF0FF3000F001FA054B5E
:100680001C60002000E0012010BD00BF040000201D
:10069000000000200800002008B50B4B1A6842F447
:1006A00000721A601A6842F480621A601A6842F492
:1006B00080721A60032000F0D1F90F20FFF7C6FF07
:1006C000FFF75CFF002008BD003C0240034A1168B0
:1006D000034B1B780B441360704700BFE0020020FF
:1006E00004000020014B1868704700BFE0020020A2
:1006F000002800F0A18038B5044690F82030D3B12E
:100700002268136843F001031360FFF7EBFF05460F
:1007100023685A6812F0010F10D1FFF7E3FF401B66
:100720000A28F5D9636A43F400336362052384F829
:100730002030012038BDFFF7CBFDE1E71A6822F039
:1007400002021A60FFF7CEFF054623685A6812F0CE
:10075000020F0DD0FFF7C6FF401B0A28F5D9636AC8
:1007600043F400336362052384F820300120E1E77D
:10077000227E012A3DD01A6822F080021A60637E30
:10078000012B3BD02268136823F040031360A37E43
:10079000012B39D02268136823F020031360E37E15
:1007A000012B37D02268136843F010031360237FB6
:1007B000012B35D02268136823F008031360637F90
:1007C000012B33D02268136823F004031360A3685D
:1007D000E268134322691343626913436268013A72
:1007E00021681343CB6100206062012384F820302C
:1007F000A0E71A6842F080021A60C0E72268136816
:1008000043F040031360C2E72268136843F02003FB
:100810001360C4E72268136823F010031360C6E76F
:100820002268136843F008031360C8E7226813685E
:1008300043F004031360CAE70120704790F82030AA
:10084000013BDBB2012B05D9436A43F480234362A9
:100850000120704730B5464BD3F8002242F0010228
:10086000C3F80022D3F8002222F47C52C3F80022FD
:10087000D3F80022486A42EA0022C3F800224A69FB
:1008800002F01F02012000FA02F2D3F81C026FEA04
:10089000020C20EA0200C3F81C02CB69C3B9344B36
:1008A000D3F80C020CEA0000C3F80C028C884869EB
:1008B000CD6844EA0544483043F830408C680888E5
:1008C00040EA04404C6904F1480E03EBCE03586043
:1008D000CB69012B1ED08B69002B33D12448D0F873
:1008E00004320CEA0303C0F804320B698BBB2048C6
:1008F000D0F814320CEA0303C0F814320B6A012B4F
:100900002ED01B4AD2F8003223F00103C2F8003285
:10091000002030BD164BD3F80C021043C3F80C0274
:100920008C8848690D6844EA0544483043F83040F3
:1009300088894C698D6840EA0540483403EBC4035C
:100940005860C8E70A48D0F804321343C0F80432AC
:10095000CBE70748D0F814321343C0F81432CDE780
:100960000349D1F81C321343C1F81C32C9E700BF58
:100970000064004070B5044690F82030012B06D08A
:10098000436A43F4002343620126304670BDDEB261
:10099000022380F820300268136823F001031360FB
:1009A000FFF7A0FE054623685B6813F0010F0CD02B
:1009B000FFF798FE431B0A2BF5D9636A43F4003313
:1009C0006362052384F82030DFE700266662DCE7F7
:1009D00090F82030013BDBB2012B05D9436A43F488
:1009E0008023436201207047026853690B435361BF
:1009F00000207047002808DB0901C9B200F16040FF
:100A000000F5614080F80013704700F00F00090105
:100A1000C9B2014B1954704714ED00E000B500F065
:100A20000700C0F1070CBCF1040F28BF4FF0040C05
:100A3000031D062B0FD9C31E4FF0FF3E0EFA0CF01C
:100A400021EA000199400EFA03FE22EA0E0241EA71
:100A500002005DF804FB0023EEE70000074AD368BC
:100A600023F4E0631B041B0C000200F4E06003436A
:100A700043F0BF6343F40033D360704700ED00E000
:100A800010B50446054BD868C0F30220FFF7C6FF37
:100A900001462046FFF7AEFF10BD00BF00ED00E0AD
:100AA0000138B0F1807F0BD24FF0E0235861054A46
:100AB000F02182F823100020986107221A61704704
:100AC0000120704700ED00E000230F2B00F2E980C9
:100AD00070B582B065E085684FEA430E032404FADE
:100AE0000EF425EA0405CC6804FA0EF42C43846065
:100AF000446824EA02044A68C2F300129A4022437E
:100B000042605CE0DC08083450F8242003F007055C
:100B1000AD004FF00F0E0EFA05FE22EA0E0E0A6926
:100B2000AA4042EA0E0240F824205CE0072200E0DE
:100B3000002202FA0EF22A4302345A4D45F82420CC
:100B4000594A94686FEA0C0224EA0C054E6816F4C0
:100B5000801F01D04CEA0405534CA560E46802EA0A
:100B600004054E6816F4001F01D04CEA04054E4CF3
:100B7000E560646802EA04054E6816F4003F01D09F
:100B80004CEA0405484C6560246822404D6815F421
:100B9000803F01D04CEA0402434C226001330F2B0A
:100BA0007DD801229A400C6804EA020C32EA04045F
:100BB000F4D14C6804F00304013C012C8BD94A6841
:100BC00002F00302032A09D0C4685D000322AA4090
:100BD00024EA02048A68AA402243C2604A6802F0FA
:100BE0000302022A8ED004684FEA430E032202FA5F
:100BF0000EF224EA02044A6802F0030202FA0EF23C
:100C0000224302604A6812F4403FC7D0002201929A
:100C1000264A546C44F480445464526C02F480427A
:100C20000192019A9C08A51C1E4A52F8255003F017
:100C3000030E4FEA8E0E0F2202FA0EF225EA02058B
:100C40001B4A90423FF474AF02F5806290421AD082
:100C500002F58062904218D002F58062904216D070
:100C600002F58062904214D002F58062904212D068
:100C700002F58062904210D002F5806290423FF40B
:100C800055AF082255E7012253E7022251E703221C
:100C90004FE704224DE705224BE7062249E702B061
:100CA00070BD704700380140003C014000380240F0
:100CB00000000240002800F0E08170B582B00446D8
:100CC000036813F0010F3BD09F4B9B6803F00C03AC
:100CD000042B2CD09C4B9B6803F00C03082B21D0D9
:100CE0006368B3F5803F4FD0B3F5A02F52D0964B39
:100CF0001A6822F480321A601A6822F480221A607C
:100D00006368002B50D0FFF7EDFC05468E4B1B6847
:100D100013F4003F14D1FFF7E5FC401B6428F5D91C
:100D20000320B1E1884B5B6813F4800FD8D0864B69
:100D30001B6813F4003F03D06368002B00F09F8111
:100D4000236813F0020F54D07F4B9B6813F00C0FF5
:100D50003ED07D4B9B6803F00C03082B33D0E36837
:100D6000002B68D0794B01221A60FFF7BBFC0546C7
:100D7000754B1B6813F0020F54D1FFF7B3FC401BF7
:100D80000228F5D903207FE16F4A136843F48033CA
:100D90001360B5E76C4B1A6842F480221A601A6837
:100DA00042F480321A60ABE7FFF79CFC0546664BC5
:100DB0001B6813F4003FC3D0FFF794FC401B64286A
:100DC000F5D9032060E1604B5B6813F4800FC6D156
:100DD0005D4B1B6813F0020F03D0E368012B40F05A
:100DE0005081594A136823F0F803216943EAC1038B
:100DF0001360236813F0080F42D063696BB3534B41
:100E00000122C3F8802EFFF76DFC05464E4B5B6F49
:100E100013F0020F34D1FFF765FC401B0228F5D90F
:100E2000032031E1484A136823F0F803216943EABB
:100E3000C1031360DDE7454B00221A60FFF752FC47
:100E40000546414B1B6813F0020FD2D0FFF74AFC56
:100E5000401B0228F5D9032016E13C4B0022C3F8C1
:100E6000802EFFF73FFC0546374B5B6F13F0020FF8
:100E700006D0FFF737FC401B0228F5D9032003E119
:100E8000236813F0040F77D02F4B1B6C13F0805F97
:100E900033D1002301932C4B1A6C42F080521A6418
:100EA0001B6C03F080530193019B0125284B1B68A9
:100EB00013F4807F23D0A368012B34D0052B38D0C6
:100EC000214B1A6F22F001021A671A6F22F00402F6
:100ED0001A67A368002B3DD0FFF704FC06461A4BA7
:100EE0001B6F13F0020F46D1FFF7FCFB801B41F292
:100EF00088339842F3D90320C6E00025D6E7144A88
:100F0000136843F480731360FFF7ECFB0646104B45
:100F10001B6813F4807FCED1FFF7E4FB801B02280F
:100F2000F5D90320B0E0084A136F43F001031367BB
:100F3000CFE7054B1A6F42F004021A671A6F42F0AE
:100F400001021A67C5E700BF0038024000004742AF
:100F500000700040FFF7C6FB0646524B1B6F13F0B4
:100F6000020F08D0FFF7BEFB801B41F28833984286
:100F7000F3D9032088E0EDB9A369002B00F083804A
:100F8000484A926802F00C02082A51D0022B17D06E
:100F9000454B00221A66FFF7A5FB0446414B1B6830
:100FA00013F0007F42D0FFF79DFB001B0228F5D90C
:100FB000032069E03B4A136C23F080531364DBE7A2
:100FC000394B00221A66FFF78DFB0546354B1B682F
:100FD00013F0007F06D0FFF785FB401B0228F5D9F0
:100FE000032051E0E369226A1343626A43EA8213F1
:100FF000A26A5208013A43EA0243E26A43EA026300
:10100000284A5360284B01221A66FFF76BFB0446FF
:10101000244B1B6813F0007F06D1FFF763FB001B16
:101020000228F5D903202FE000202DE000202BE03E
:10103000012B2BD01B4B5B6803F48001E2699142CA
:1010400026D103F03F02216A8A4223D1616A47F622
:10105000C0721A40B2EB811F1ED103F44031A26A64
:101060005208013AB1EB024F18D103F07063E26A03
:10107000B3EB026F14D1002006E00120704701207D
:1010800002E0012000E0002002B070BD0120FBE77B
:101090000120F9E70120F7E70120F5E70120F3E758
:1010A0000120F1E7003802400000474208B5334B09
:1010B0009B6803F00C03042B5BD0082B5BD12F4BF8
:1010C0005A6802F03F025B6813F4800F2CD02B4B60
:1010D0005868C0F388104FEA401CBCEB000C6EEB64
:1010E0000E0E4FEA8E1343EA9C634FEA8C11B1EB6C
:1010F0000C0163EB0E03DB0043EA5173C90011EBF3
:10110000000C43F10003590200234FEA4C2041EA4E
:10111000DC51FFF73DF8194B5B68C3F30143013322
:101120005B00B0FBF3F008BD144B5868C0F38810A7
:101130004FEA401CBCEB000C6EEB0E0E4FEA8E1318
:1011400043EA9C634FEA8C11B1EB0C0163EB0E0395
:10115000DB0043EA5173C90011EB000C43F10003BB
:10116000990200234FEA8C2041EA9C51FFF710F8C6
:10117000D1E70348D7E70348D5E700BF003802406E
:1011800000127A000024F400002800F09B8070B563
:101190000D4604464F4B1B6803F007038B4208D2F1
:1011A000CBB24C4A1370136803F007038B4240F034
:1011B0008B80236813F0020F17D013F0040F04D0B4
:1011C000454A936843F4E0539360236813F0080F93
:1011D00004D0414A936843F4604393603E4A936865
:1011E00023F0F003A1680B439360236813F0010F11
:1011F00032D06368012B21D09A1E012A25D9364AA4
:10120000126812F0020F61D033498A6822F003029B
:1012100013438B60FFF766FA06462F4B9B6803F07B
:101220000C036268B3EB820F16D0FFF75BFA801BEA
:1012300041F288339842F0D9032042E0264A1268EE
:1012400012F4003FE0D101203BE0234A126812F083
:10125000007FD9D1012034E01E4B1B6803F0070347
:10126000AB4207D9EAB21B4B1A701B6803F00703A5
:10127000AB422DD1236813F0040F06D0164A9368B1
:1012800023F4E053E1680B439360236813F0080FE5
:1012900007D0114A936823F46043216943EAC103EC
:1012A0009360FFF703FF0C4B9B68C3F303130B4AD8
:1012B000D35CD8400A4B18600A4B1868FFF7C6F990
:1012C000002070BD012070470120FAE70120F8E7F7
:1012D0000120F6E7003C0240003802408C2700085D
:1012E000000000200800002038B5FFF7FBF9044695
:1012F000464A136843F001031360444B1B6813F024
:10130000020F06D1FFF7EEF9001B0228F5D90320E2
:1013100038BD3E4D2B6843F080032B60FFF7E2F9A8
:1013200004460023AB60394B9B6813F00C0F08D0C8
:10133000FFF7D8F9001B41F288339842F3D9032014
:10134000E6E7FFF7CFF90446304A136823F4502349
:1013500013602E4B1B6813F4003F06D0FFF7C2F951
:10136000001B6428F5D90320D2E7FFF7BBF9044638
:10137000264A136823F080731360244B1B6813F014
:10138000007F06D0FFF7AEF9001B0228F5D9032035
:10139000BEE7FFF7A7F904461C4A136823F08063F1
:1013A00013601A4B1B6813F0006F06D0FFF79AF911
:1013B000001B0228F5D90320AAE7144B144A5A60EF
:1013C000144AC3F88420DA6822F4F852DA60DA6842
:1013D00022F40052DA60DA6842F41F02DA60DA6856
:1013E00042F40012DA605A6F22F001025A675A6F13
:1013F00042F080725A67084B084A1A60084B186816
:10140000FFF724F9002883D0012081E7003802404B
:101410001030000400300020000000200024F40000
:1014200008000020842801D0033070470020704756
:1014300008B500F031FD002008BD2DE9F04387B06C
:101440000E464469C4B18569B5B14768D0F80080DB
:10145000D0F81090B0F90800FFF7E4FF029501946E
:10146000009033464A464146384600F037FC059026
:10147000059807B0BDE8F083446805680769B0F9CE
:101480000800FFF7CFFF05AB019300903346BAB2D7
:101490002946204600F05DFC0128E9D00020E8E75D
:1014A00000F1080343604FF0FF328260C3600361C4
:1014B00000230360704700230361704743684B605B
:1014C0009A688A605160996008610368013303601B
:1014D00070470369416882688A60416851605A6850
:1014E000824206D0002202611A68013A1A60186826
:1014F000704782685A60F5E782B0002301930D4B74
:101500001B68B3F1FF3F08D04FF0500383F31188FD
:10151000BFF36F8FBFF34F8FFEE74FF0500383F39E
:101520001188BFF36F8FBFF34F8F019B002BFCD04F
:1015300002B070470C00002008480068006880F383
:1015400008884FF0000080F3148862B661B6BFF3DC
:101550004F8FBFF36F8F00DF00BF000008ED00E08A
:10156000DFF80C00016841F4700101607047000071
:1015700088ED00E04FF0807340F8043C21F0010159
:1015800040F8081C054B40F80C3C40F8202C6FF04C
:10159000020340F8243C4438704700BFF9140008A7
:1015A000074B19680868B0E8F04F80F30988BFF36B
:1015B0006F8F4FF0000080F311887047AFF3008009
:1015C000344000204FF0500383F31188BFF36F8F36
:1015D000BFF34F8F0B4A136801331360012B00D008
:1015E00070474FF0E023D3F8043D13F0FF0FF7D01E
:1015F0004FF0500383F31188BFF36F8FBFF34F8F0A
:10160000FEE700BF0C000020094B1B6843B94FF0F8
:10161000500383F31188BFF36F8FBFF34F8FFEE743
:10162000013B034A13600BB983F31188704700BF75
:101630000C0000200000000000000000000000007E
:10164000EFF30980BFF36F8F154B1A681EF0100F70
:1016500008BF20ED108A20E9F04F10602DE9090045
:101660004FF0500080F31188BFF34F8FBFF36F8F9F
:1016700000F05CFD4FF0000080F3118809BC196890
:101680000868B0E8F04F1EF0100F08BFB0EC108AE9
:1016900080F30988BFF36F8F704700BFAFF30080FE
:1016A0003440002008B54FF0500383F31188BFF396
:1016B0006F8FBFF34F8F00F031FC28B14FF0E02364
:1016C0004FF08052C3F8042D002383F3118808BD26
:1016D0004FF0E022002313619361054B1B6805491D
:1016E000A1FB03139B09013B53610723136170475F
:1016F00000000020D34D62104FF0E023D3F8002DFE
:101700003D4B9A421CD04FF0E023D3F8002D3B4BC9
:101710009A421ED030B583B0394B1A78D2B20192BA
:10172000FF221A701B78DBB28DF803309DF803306E
:1017300003F05003334A1370334B07221A601BE047
:101740004FF0500383F31188BFF36F8FBFF34F8FB8
:10175000FEE74FF0500383F31188BFF36F8FBFF3A1
:101760004F8FFEE7284A1368013B13609DF8033052
:101770005B00DBB28DF803309DF8033013F0800F6F
:10178000F0D1214B1B68032B08D04FF0500383F39B
:101790001188BFF36F8FBFF34F8FFEE71B021A4A0A
:1017A000136003F4E0631360019BDBB2144A13700F
:1017B0004FF0E024D4F8203D43F47003C4F8203DFA
:1017C000D4F8203D43F07043C4F8203DFFF780FF7C
:1017D00000250E4B1D60FFF7C3FED4F8343F43F0E5
:1017E0004043C4F8343FFFF7A7FE00F09FFCFFF72B
:1017F00083FE284603B030BD71C20F4170C20F4155
:1018000000E400E0E8020020E40200200C000020D8
:10181000124A12F0070F1ED0D11D21F00701C1F5A9
:10182000705313440A460E4802600021416013447D
:10183000083B23F007030B48036059601960991AAD
:1018400051601360084B1960084B1960084B4FF04A
:1018500000421A6070474FF47053E4E70C03002015
:101860000403002000030020F8020020FC020020F6
:10187000EC020020164B1A461B688342FBD35168CA
:1018800002EB010C844509D0416800EB010C634573
:1018900009D00360904219D010607047406801443D
:1018A00051601046F0E710B40A4C2468A3420BD0F4
:1018B0005B681944416013681B680360904200D064
:1018C00010605DF8044B70470460F7E7704700BF95
:1018D000040300200003002038B5044600F016FB86
:1018E000384B1B68B3B1384B1B681C4250D1002CDD
:1018F00050D004F1080214F0070F02D022F00702C2
:101900000832002A55D0314B1B68934253D33049DB
:101910000C6804E0FFF77CFFE5E721461C4663689E
:10192000934202D22368002BF7D1264B1B68A342B7
:1019300043D00D68083523680B6063689B1A102B31
:1019400010D9A01810F0070F08D04FF0500383F300
:101950001188BFF36F8FBFF34F8FFEE74360626064
:10196000FFF788FF626819490B689B1A0B601949D9
:1019700009688B4201D217490B60134B1B68134354
:10198000636000232360144A13680133136002E08C
:10199000002500E0002500F04DFB15F0070F0ED0EC
:1019A0004FF0500383F31188BFF36F8FBFF34F8F56
:1019B000FEE70025EFE70025EDE70025EBE72846E9
:1019C00038BD00BF00030020EC020020FC02002014
:1019D00004030020F8020020F4020020002834D084
:1019E00038B50446A0F1080550F8043C174A1268BF
:1019F000134208D14FF0500383F31188BFF36F8F68
:101A0000BFF34F8FFEE750F8081C41B14FF0500371
:101A100083F31188BFF36F8FBFF34F8FFEE723EA85
:101A2000020340F8043C00F071FA54F8041C084A20
:101A300013680B4413602846FFF71CFF054A136820
:101A40000133136000F0F6FA38BD7047EC02002055
:101A5000FC020020F0020020084B1B681B6823B921
:101A6000074B4FF0FF321A607047044B1B68DB686E
:101A7000DB685A68024B1A60704700BF7C3F002049
:101A8000143F00202DE9F04707469846089DDDF8F1
:101A900024900A9C266B02F18042013A06EB8206F2
:101AA00026F00706C1B308464FF0000CBCF10F0F3B
:101AB00009D810F80C2004EB0C0383F8342012B181
:101AC0000CF1010CF2E7002384F84330062D00D915
:101AD0000625E56265644FF0000AC4F848A0201DA1
:101AE000FFF7E9FC04F11800FFF7E5FC2461C5F1FC
:101AF0000705A5616462C4F84CA084F850A0424672
:101B000039463046FFF736FD2060B9F1000F01D0AD
:101B1000C9F80040BDE8F087002384F83430D5E7E9
:101B200038B5002407E004EB840293000E48184403
:101B3000FFF7B6FC0134062CF5D90C4D2846FFF70B
:101B4000AFFC0B4C2046FFF7ABFC0A48FFF7A8FCA4
:101B50000948FFF7A5FC0948FFF7A2FC084B1D60E8
:101B6000084B1C6038BD00BFA83F0020943F0020F8
:101B7000803F0020643F0020503F0020383F00207D
:101B80007C3F0020783F002010B50446FFF71AFD87
:101B9000214A136801331360204B1B685BB1204B53
:101BA0001B686BB91D4B1B68DA6AE36A9A4207D857
:101BB0001A4B1C6004E0194B1C601368012B28D0E1
:101BC000184A136801331360E06A01238340164A00
:101BD00011680B43136000EB8000211D134B03EBD6
:101BE0008000FFF76BFCFFF70FFD0D4B1B687BB10F
:101BF0000A4B1B68DA6AE36A9A4209D24FF0E02383
:101C00004FF08052C3F8042DBFF34F8FBFF36F8F97
:101C100010BDFFF785FFD3E7343F0020344000209C
:101C2000283F0020183F00202C3F0020A83F002024
:101C300010B5044690F8513063B1012B11D0022B3E
:101C40000ED04FF0500383F31188BFF36F8FBFF3B3
:101C50004F8FFEE7006BFFF7C1FE2046FFF7BEFE89
:101C600010BDFFF7BBFEFBE70F4B1B68D3B110B5F0
:101C7000FFF7A8FC0D4BDB68DC68201DFFF729FC93
:101C80000B4A1368013B1360074A1368013B13605A
:101C9000FFF7BAFC2046FFF7CBFF034B1B68002B76
:101CA000E6D110BD704700BF4C3F0020503F0020E0
:101CB000343F002008B5FFF7D7FF074B1B68012B07
:101CC000F9D94FF0E0234FF08052C3F8042DBFF351
:101CD0004F8FBFF36F8FEEE7A83F002030B587B07E
:101CE0000B9C7CB10C9DB5B154250495049D542DDD
:101CF0001AD04FF0500383F31188BFF36F8FBFF3F7
:101D00004F8FFEE74FF0500383F31188BFF36F8FBF
:101D1000BFF34F8FFEE74FF0500383F31188BFF3FB
:101D20006F8FBFF34F8FFEE7049D0C9D2C63022441
:101D300085F8514000240394029505AC01940A9C57
:101D40000094FFF79FFE0C98FFF71EFF059807B061
:101D500030BD2DE9F04385B00746884614461E463F
:101D60009000FFF7B9FD08B381465420FFF7B4FD9A
:101D70000546A8B1C0F83090002380F85130039395
:101D800002900D9B01930C9B0093334622464146E3
:101D90003846FFF777FE2846FFF7F6FE012007E0FA
:101DA0004846FFF71BFE4FF0FF3001E04FF0FF30D9
:101DB00005B0BDE8F083000038B50446FFF702FC2B
:101DC000002C34D0251D2846FFF783FB70B9E26A4A
:101DD00002EB82039B002749CB583BB9012303FA4E
:101DE00002F225490B6823EA02030B60A36A1BB1C8
:101DF00004F11800FFF76DFB204A136801331360EC
:101E00001F4B1B68A34215D01E4A1368013B136089
:101E10002046FFF70DFFFFF71FFEFFF7F5FB1A4BFC
:101E20001B681BB1164B1B68A3420CD038BD144B6A
:101E30001C68C7E729461548FFF740FB144A13689A
:101E400001331360E9E7134B1B6843B14FF05003B4
:101E500083F31188BFF36F8FBFF34F8FFEE74FF00F
:101E6000E0234FF08052C3F8042DBFF34F8FBFF330
:101E70006F8FDBE7A83F00202C3F0020183F002099
:101E800034400020343F0020283F0020503F0020F5
:101E90004C3F00200C3F002010B588B00024059472
:101EA000069407AA06A905A8FEF79CFA059B0293CB
:101EB000069B019300942346079A0E490E48FFF7AC
:101EC0000DFF0E4B186090B14FF0500383F3118853
:101ED000BFF36F8FBFF34F8F094B4FF0FF321A6084
:101EE000084B01221A60084B1C60FFF705FC08B084
:101EF00010BD00BF84270008B51C0008103F00205B
:101F0000143F0020283F0020303F0020024A136881
:101F100001331360704700BF0C3F0020F8B53A4B07
:101F20001B68002B69D1394B1D6801351D60C5B98F
:101F3000374B1B681B6843B14FF0500383F3118884
:101F4000BFF36F8FBFF34F8FFEE7314A1168314BFC
:101F5000186810601960304A136801331360FFF786
:101F60007BFD2E4B1B68AB423DD900272C4B1B68D9
:101F7000DB6A03EB83039A002A4B9B58012B00D9A1
:101F80000127294B1B68002B3CD001273AE0012791
:101F90001F4B1B681B6843B31D4B1B68DB68DC6869
:101FA00063689D4226D3261D3046FFF792FAA36A46
:101FB0001BB104F11800FFF78CFAE36A01229A4082
:101FC0001A49086802430A6003EB83039A0031460A
:101FD00014481044FFF772FAE26A114B1B68DB6A7F
:101FE0009A42D4D2D4E70027D2E70C4B4FF0FF320D
:101FF0001A60BBE7094A1360B8E70D4A136801335A
:10200000136000273846F8BD0C3F0020303F002009
:102010007C3F0020783F00201C3F0020143F002020
:1020200034400020A83F0020203F00202C3F00200B
:10203000243F002038B5354B1B6843B94FF050039F
:1020400083F31188BFF36F8FBFF34F8FFEE7FFF766
:10205000B9FA2E4B1A68013A1A601B68002B4FD14F
:102060002B4B1B680BB900244BE00024294B1B6849
:102070001BB3284BDB68DC6804F11800FFF729FA72
:10208000251D2846FFF725FAE06A01238340224AEE
:1020900011680B43136000EB800029461F4B03EBD4
:1020A0008000FFF70BFAE26A1D4B1B68DB6A9A425D
:1020B000DCD31C4B01221A60D8E70CB1FFF7CCFC33
:1020C000194B1C6884B9174B1C68D4B14FF0E0233E
:1020D0004FF08052C3F8042DBFF34F8FBFF36F8FC3
:1020E00001240EE0013C07D0FFF718FF0028F9D0CB
:1020F0000C4B01221A60F5E70B4B00221A60E2E755
:102100000024FFF781FA204638BD00BF0C3F0020B5
:10211000343F0020643F00202C3F0020A83F0020D7
:1021200034400020203F0020243F0020204B1B682B
:102130001BB1204B01221A6070471E4B00221A600F
:102140001D4B1B68B3FA83F3DBB2C3F11F0303EB30
:1021500083018A0019498A5842B94FF0500383F32A
:102160001188BFF36F8FBFF34F8FFEE7134803EB68
:1021700083018A00024451684968516003EB830C73
:102180004FEA8C0208320244914209D003EB8303E8
:102190009A000A4B13445B68DA68094B1A6070476F
:1021A000486862469100054A0A445060EEE700BF65
:1021B0000C3F0020203F00202C3F0020A83F0020A3
:1021C00034400020054B1B6833B1054B1B680BB135
:1021D000002070470220704701207047283F0020F0
:1021E0000C3F0020FEE7000010B58AB000230593E5
:1021F00006930122079200930193029303930493A1
:102200000892074C69462046FEF718FB2046FEF769
:10221000B1FB02212046FEF7DBFB0AB010BD00BF78
:102220005C00002010B58AB00E23059309930023AB
:102230000693012207920093019302930393049360
:102240000892074C69462046FEF7F8FA2046FEF74A
:1022500091FB02212046FEF7BBFB0AB010BD00BF78
:10226000340000202DE9F047089D0F4604468C46B7
:10227000002B48D18A42164661D9B2FA82F34BB19B
:10228000C3F1200201FA03FC20FA02F29E4042EA66
:102290000C0C9C404FEA164EB7B2BCFBFEF1220C70
:1022A0000EFB11CC42EA0C4201FB07F0904209D927
:1022B000B21801F1FF3C80F0EE80904240F2EB80DA
:1022C00002393244121AA4B2B2FBFEF00EFB102205
:1022D00044EA024400FB07F7A74209D9341900F188
:1022E000FF3280F0DA80A74240F2D78034440238CF
:1022F00040EA0140E41B00211DB1DC400023C5E998
:102300000043BDE8F0878B4206D90DB1C5E9000155
:1023100000210846BDE8F087B3FA83F1002948D1CF
:10232000BB4202D3824200F20781841A67EB0302A8
:1023300001209446002DE4D0C5E9004CE1E7002AD5
:1023400000F09280B2FA82F3002B40F0A8808A1A43
:102350004FEA164E1FFA86FC0121200CB2FBFEF755
:102360000EFB172240EA02420CFB07F0904207D90D
:10237000B21807F1FF3802D2904200F2E2804746DD
:10238000121AA4B2B2FBFEF00EFB102244EA024481
:102390000CFB00FCA44507D9341900F1FF3202D22E
:1023A000A44500F2CB801046A4EB0C0440EA0740A1
:1023B000A2E7C1F120068B4022FA06FC4CEA030C8E
:1023C00007FA01F420FA06F3F7404FEA1C492343C9
:1023D00000FA01F81FFA8CFEB7FBF9F01C0C09FBA0
:1023E000107744EA074400FB0EF7A74202FA01F215
:1023F0000AD91CEB040400F1FF3A80F09B80A7424D
:1024000040F2988002386444E41B9FB2B4FBF9F3B5
:1024100009FB134447EA044403FB0EFEA64509D911
:102420001CEB040403F1FF3780F08280A6457FD9BE
:10243000023B644443EA0040A4EB0E04A0FB02E725
:10244000BC427346B94663D360D05DB1B8EB0302BA
:1024500064EB090404FA06F622FA01F31E43CC40A9
:10246000C5E9006400214CE76208480842EAC171EE
:102470000B0C43EA00438AB242EA0342B3FBF6F193
:10248000E407B4463746B6461F23B0FBF6F0D21B2E
:1024900041EA004161E7614614E7104628E7C3F1CD
:1024A000200120FA01F29E4027FA01F19F403A43B1
:1024B0004FEA164E1FFA86FCB1FBFEF70EFB171013
:1024C000110C41EA004107FB0CF8884504FA03F4BB
:1024D0003AD9711807F1FF3001D288451FD8A1EB16
:1024E0000801B1FBFEF808FB0CF70EFB181192B2C5
:1024F00042EA0142BA422FD2B21808F1FF31C6D2E5
:10250000BA42C4D2A8F102013244C0E7F0459CD2DD
:10251000BEEB020367EB0C070138B94695E7A6EB63
:1025200008084144B81EB1FBFEF808FB0CF7DCE7D5
:102530003B467FE7504667E70846FBE634440238EF
:1025400032E7023F32441BE7A1EB08013846B1FBFA
:10255000FEF808FB0CF7C8E7414698E7830730B55B
:1025600046D08418844604E003F8011B9D0704D07C
:102570009C46A4456346F7D130BD013A0244A2EB24
:102580000C02032A29D9CCB204EB04240F2A04EB51
:1025900004442FD9A2F1100C2CF00F0C03F11005FC
:1025A000AC44C3E90044C3E9024410336345F8D1A5
:1025B00012F00C0F02F00F0E18D02EF0030C9C44FA
:1025C000AEF104051A4642F8044B6245FBD125F0F2
:1025D000030404330EF003022344002ACCD0C9B212
:1025E0001A4403F8011B9342FBD130BD7246F4E755
:1025F0000346C6E79646E0E770B50F4B0F4DAB427A
:10260000A3EB050607D0B610002455F8043B0134AF
:102610009847A642F9D800F07FF8094D094B5E1B98
:10262000AB424FEAA60606D0002455F8043B01341D
:102630009847A642F9D870BDA4270008A42700082F
:10264000A4270008AC270008704700BF704700BFF0
:10265000024B13B1024800F005B8704700000000BB
:1026600071260008002301461A46184600F014B8E7
:1026700038B5074D074C2C1BA41005D0013C55F86C
:10268000043D9847002CF9D1BDE8384000F04AB825
:10269000B0270008AC2700082DE9F8431B4D06467B
:1026A000286898460F469146FFF7CEFF184B1C68E6
:1026B0001CB3286865681F2D22DC4EB96B1C0235DF
:1026C000636044F82570FFF7C1FF0020BDE8F88380
:1026D00004EB85010123C1F88890D4F88821AB4030
:1026E0001A43022EC4F88821C1F80881E6D1D4F833
:1026F0008C211A43C4F88C21E0E7064C1C60D8E713
:10270000FFF7A4FF4FF0FF30E0E700BF100000200C
:102710003C40002040400020F8B500BFF8BC08BC99
:102720009E467047F8B500BFF8BC08BC9E4670478F
:1027300078270008D903000800000000000000000E
:102740008000000000000000000000006827000872
:10275000E52100080000000000000000000100006A
:10276000000000000000000043414E53656E6454B9
:102770006573745461736B0064656661756C745441
:1027800061736B0049444C450000000000000000EC
:0C27900000000000010203040607080915
:08279C00C8FAFF7F01000000F4
:0827A400512600082D02000877
:0427AC00050200081A
:1027B0000024F4000100000010000000AAAAAAAA48
:0427C000384000207D
:04000005080005F9F1
:00000001FF
